{
  "_format": "hh-sol-artifact-1",
  "contractName": "GeekCourseCertificate",
  "sourceName": "contracts/GeekCourseCertificate.sol",
  "abi": [
    {
      "inputs": [],
      "stateMutability": "nonpayable",
      "type": "constructor"
    },
    {
      "inputs": [],
      "name": "AccessControlBadConfirmation",
      "type": "error"
    },
    {
      "inputs": [
        {
          "internalType": "address",
          "name": "account",
          "type": "address"
        },
        {
          "internalType": "bytes32",
          "name": "neededRole",
          "type": "bytes32"
        }
      ],
      "name": "AccessControlUnauthorizedAccount",
      "type": "error"
    },
    {
      "inputs": [
        {
          "internalType": "address",
          "name": "sender",
          "type": "address"
        },
        {
          "internalType": "uint256",
          "name": "tokenId",
          "type": "uint256"
        },
        {
          "internalType": "address",
          "name": "owner",
          "type": "address"
        }
      ],
      "name": "ERC721IncorrectOwner",
      "type": "error"
    },
    {
      "inputs": [
        {
          "internalType": "address",
          "name": "operator",
          "type": "address"
        },
        {
          "internalType": "uint256",
          "name": "tokenId",
          "type": "uint256"
        }
      ],
      "name": "ERC721InsufficientApproval",
      "type": "error"
    },
    {
      "inputs": [
        {
          "internalType": "address",
          "name": "approver",
          "type": "address"
        }
      ],
      "name": "ERC721InvalidApprover",
      "type": "error"
    },
    {
      "inputs": [
        {
          "internalType": "address",
          "name": "operator",
          "type": "address"
        }
      ],
      "name": "ERC721InvalidOperator",
      "type": "error"
    },
    {
      "inputs": [
        {
          "internalType": "address",
          "name": "owner",
          "type": "address"
        }
      ],
      "name": "ERC721InvalidOwner",
      "type": "error"
    },
    {
      "inputs": [
        {
          "internalType": "address",
          "name": "receiver",
          "type": "address"
        }
      ],
      "name": "ERC721InvalidReceiver",
      "type": "error"
    },
    {
      "inputs": [
        {
          "internalType": "address",
          "name": "sender",
          "type": "address"
        }
      ],
      "name": "ERC721InvalidSender",
      "type": "error"
    },
    {
      "inputs": [
        {
          "internalType": "uint256",
          "name": "tokenId",
          "type": "uint256"
        }
      ],
      "name": "ERC721NonexistentToken",
      "type": "error"
    },
    {
      "anonymous": false,
      "inputs": [
        {
          "indexed": true,
          "internalType": "address",
          "name": "owner",
          "type": "address"
        },
        {
          "indexed": true,
          "internalType": "address",
          "name": "approved",
          "type": "address"
        },
        {
          "indexed": true,
          "internalType": "uint256",
          "name": "tokenId",
          "type": "uint256"
        }
      ],
      "name": "Approval",
      "type": "event"
    },
    {
      "anonymous": false,
      "inputs": [
        {
          "indexed": true,
          "internalType": "address",
          "name": "owner",
          "type": "address"
        },
        {
          "indexed": true,
          "internalType": "address",
          "name": "operator",
          "type": "address"
        },
        {
          "indexed": false,
          "internalType": "bool",
          "name": "approved",
          "type": "bool"
        }
      ],
      "name": "ApprovalForAll",
      "type": "event"
    },
    {
      "anonymous": false,
      "inputs": [
        {
          "indexed": true,
          "internalType": "uint256",
          "name": "tokenId",
          "type": "uint256"
        },
        {
          "indexed": false,
          "internalType": "string",
          "name": "web2CourseId",
          "type": "string"
        },
        {
          "indexed": true,
          "internalType": "address",
          "name": "student",
          "type": "address"
        }
      ],
      "name": "CertificateMinted",
      "type": "event"
    },
    {
      "anonymous": false,
      "inputs": [
        {
          "indexed": true,
          "internalType": "bytes32",
          "name": "role",
          "type": "bytes32"
        },
        {
          "indexed": true,
          "internalType": "bytes32",
          "name": "previousAdminRole",
          "type": "bytes32"
        },
        {
          "indexed": true,
          "internalType": "bytes32",
          "name": "newAdminRole",
          "type": "bytes32"
        }
      ],
      "name": "RoleAdminChanged",
      "type": "event"
    },
    {
      "anonymous": false,
      "inputs": [
        {
          "indexed": true,
          "internalType": "bytes32",
          "name": "role",
          "type": "bytes32"
        },
        {
          "indexed": true,
          "internalType": "address",
          "name": "account",
          "type": "address"
        },
        {
          "indexed": true,
          "internalType": "address",
          "name": "sender",
          "type": "address"
        }
      ],
      "name": "RoleGranted",
      "type": "event"
    },
    {
      "anonymous": false,
      "inputs": [
        {
          "indexed": true,
          "internalType": "bytes32",
          "name": "role",
          "type": "bytes32"
        },
        {
          "indexed": true,
          "internalType": "address",
          "name": "account",
          "type": "address"
        },
        {
          "indexed": true,
          "internalType": "address",
          "name": "sender",
          "type": "address"
        }
      ],
      "name": "RoleRevoked",
      "type": "event"
    },
    {
      "anonymous": false,
      "inputs": [
        {
          "indexed": true,
          "internalType": "address",
          "name": "from",
          "type": "address"
        },
        {
          "indexed": true,
          "internalType": "address",
          "name": "to",
          "type": "address"
        },
        {
          "indexed": true,
          "internalType": "uint256",
          "name": "tokenId",
          "type": "uint256"
        }
      ],
      "name": "Transfer",
      "type": "event"
    },
    {
      "inputs": [],
      "name": "DEFAULT_ADMIN_ROLE",
      "outputs": [
        {
          "internalType": "bytes32",
          "name": "",
          "type": "bytes32"
        }
      ],
      "stateMutability": "view",
      "type": "function"
    },
    {
      "inputs": [],
      "name": "MINTER_ROLE",
      "outputs": [
        {
          "internalType": "bytes32",
          "name": "",
          "type": "bytes32"
        }
      ],
      "stateMutability": "view",
      "type": "function"
    },
    {
      "inputs": [
        {
          "internalType": "address",
          "name": "to",
          "type": "address"
        },
        {
          "internalType": "uint256",
          "name": "tokenId",
          "type": "uint256"
        }
      ],
      "name": "approve",
      "outputs": [],
      "stateMutability": "nonpayable",
      "type": "function"
    },
    {
      "inputs": [
        {
          "internalType": "address",
          "name": "owner",
          "type": "address"
        }
      ],
      "name": "balanceOf",
      "outputs": [
        {
          "internalType": "uint256",
          "name": "",
          "type": "uint256"
        }
      ],
      "stateMutability": "view",
      "type": "function"
    },
    {
      "inputs": [
        {
          "internalType": "uint256",
          "name": "",
          "type": "uint256"
        }
      ],
      "name": "certificates",
      "outputs": [
        {
          "internalType": "string",
          "name": "web2CourseId",
          "type": "string"
        },
        {
          "internalType": "address",
          "name": "student",
          "type": "address"
        },
        {
          "internalType": "uint256",
          "name": "timestamp",
          "type": "uint256"
        },
        {
          "internalType": "string",
          "name": "metadataURI",
          "type": "string"
        }
      ],
      "stateMutability": "view",
      "type": "function"
    },
    {
      "inputs": [
        {
          "internalType": "uint256",
          "name": "tokenId",
          "type": "uint256"
        }
      ],
      "name": "getApproved",
      "outputs": [
        {
          "internalType": "address",
          "name": "",
          "type": "address"
        }
      ],
      "stateMutability": "view",
      "type": "function"
    },
    {
      "inputs": [
        {
          "internalType": "bytes32",
          "name": "role",
          "type": "bytes32"
        }
      ],
      "name": "getRoleAdmin",
      "outputs": [
        {
          "internalType": "bytes32",
          "name": "",
          "type": "bytes32"
        }
      ],
      "stateMutability": "view",
      "type": "function"
    },
    {
      "inputs": [
        {
          "internalType": "address",
          "name": "student",
          "type": "address"
        },
        {
          "internalType": "string",
          "name": "web2CourseId",
          "type": "string"
        }
      ],
      "name": "getStudentCertificates",
      "outputs": [
        {
          "internalType": "uint256[]",
          "name": "",
          "type": "uint256[]"
        }
      ],
      "stateMutability": "view",
      "type": "function"
    },
    {
      "inputs": [
        {
          "internalType": "bytes32",
          "name": "role",
          "type": "bytes32"
        },
        {
          "internalType": "address",
          "name": "account",
          "type": "address"
        }
      ],
      "name": "grantRole",
      "outputs": [],
      "stateMutability": "nonpayable",
      "type": "function"
    },
    {
      "inputs": [
        {
          "internalType": "address",
          "name": "student",
          "type": "address"
        },
        {
          "internalType": "string",
          "name": "web2CourseId",
          "type": "string"
        }
      ],
      "name": "hasCertificate",
      "outputs": [
        {
          "internalType": "bool",
          "name": "",
          "type": "bool"
        }
      ],
      "stateMutability": "view",
      "type": "function"
    },
    {
      "inputs": [
        {
          "internalType": "bytes32",
          "name": "role",
          "type": "bytes32"
        },
        {
          "internalType": "address",
          "name": "account",
          "type": "address"
        }
      ],
      "name": "hasRole",
      "outputs": [
        {
          "internalType": "bool",
          "name": "",
          "type": "bool"
        }
      ],
      "stateMutability": "view",
      "type": "function"
    },
    {
      "inputs": [
        {
          "internalType": "address",
          "name": "owner",
          "type": "address"
        },
        {
          "internalType": "address",
          "name": "operator",
          "type": "address"
        }
      ],
      "name": "isApprovedForAll",
      "outputs": [
        {
          "internalType": "bool",
          "name": "",
          "type": "bool"
        }
      ],
      "stateMutability": "view",
      "type": "function"
    },
    {
      "inputs": [
        {
          "internalType": "address",
          "name": "student",
          "type": "address"
        },
        {
          "internalType": "string",
          "name": "web2CourseId",
          "type": "string"
        },
        {
          "internalType": "string",
          "name": "metadataURI",
          "type": "string"
        }
      ],
      "name": "mintCertificate",
      "outputs": [
        {
          "internalType": "uint256",
          "name": "",
          "type": "uint256"
        }
      ],
      "stateMutability": "nonpayable",
      "type": "function"
    },
    {
      "inputs": [],
      "name": "name",
      "outputs": [
        {
          "internalType": "string",
          "name": "",
          "type": "string"
        }
      ],
      "stateMutability": "view",
      "type": "function"
    },
    {
      "inputs": [
        {
          "internalType": "uint256",
          "name": "tokenId",
          "type": "uint256"
        }
      ],
      "name": "ownerOf",
      "outputs": [
        {
          "internalType": "address",
          "name": "",
          "type": "address"
        }
      ],
      "stateMutability": "view",
      "type": "function"
    },
    {
      "inputs": [
        {
          "internalType": "bytes32",
          "name": "role",
          "type": "bytes32"
        },
        {
          "internalType": "address",
          "name": "callerConfirmation",
          "type": "address"
        }
      ],
      "name": "renounceRole",
      "outputs": [],
      "stateMutability": "nonpayable",
      "type": "function"
    },
    {
      "inputs": [
        {
          "internalType": "bytes32",
          "name": "role",
          "type": "bytes32"
        },
        {
          "internalType": "address",
          "name": "account",
          "type": "address"
        }
      ],
      "name": "revokeRole",
      "outputs": [],
      "stateMutability": "nonpayable",
      "type": "function"
    },
    {
      "inputs": [
        {
          "internalType": "address",
          "name": "from",
          "type": "address"
        },
        {
          "internalType": "address",
          "name": "to",
          "type": "address"
        },
        {
          "internalType": "uint256",
          "name": "tokenId",
          "type": "uint256"
        }
      ],
      "name": "safeTransferFrom",
      "outputs": [],
      "stateMutability": "nonpayable",
      "type": "function"
    },
    {
      "inputs": [
        {
          "internalType": "address",
          "name": "from",
          "type": "address"
        },
        {
          "internalType": "address",
          "name": "to",
          "type": "address"
        },
        {
          "internalType": "uint256",
          "name": "tokenId",
          "type": "uint256"
        },
        {
          "internalType": "bytes",
          "name": "data",
          "type": "bytes"
        }
      ],
      "name": "safeTransferFrom",
      "outputs": [],
      "stateMutability": "nonpayable",
      "type": "function"
    },
    {
      "inputs": [
        {
          "internalType": "address",
          "name": "operator",
          "type": "address"
        },
        {
          "internalType": "bool",
          "name": "approved",
          "type": "bool"
        }
      ],
      "name": "setApprovalForAll",
      "outputs": [],
      "stateMutability": "nonpayable",
      "type": "function"
    },
    {
      "inputs": [
        {
          "internalType": "string",
          "name": "",
          "type": "string"
        },
        {
          "internalType": "address",
          "name": "",
          "type": "address"
        },
        {
          "internalType": "uint256",
          "name": "",
          "type": "uint256"
        }
      ],
      "name": "studentCertificates",
      "outputs": [
        {
          "internalType": "uint256",
          "name": "",
          "type": "uint256"
        }
      ],
      "stateMutability": "view",
      "type": "function"
    },
    {
      "inputs": [
        {
          "internalType": "bytes4",
          "name": "interfaceId",
          "type": "bytes4"
        }
      ],
      "name": "supportsInterface",
      "outputs": [
        {
          "internalType": "bool",
          "name": "",
          "type": "bool"
        }
      ],
      "stateMutability": "view",
      "type": "function"
    },
    {
      "inputs": [],
      "name": "symbol",
      "outputs": [
        {
          "internalType": "string",
          "name": "",
          "type": "string"
        }
      ],
      "stateMutability": "view",
      "type": "function"
    },
    {
      "inputs": [
        {
          "internalType": "uint256",
          "name": "tokenId",
          "type": "uint256"
        }
      ],
      "name": "tokenURI",
      "outputs": [
        {
          "internalType": "string",
          "name": "",
          "type": "string"
        }
      ],
      "stateMutability": "view",
      "type": "function"
    },
    {
      "inputs": [
        {
          "internalType": "address",
          "name": "from",
          "type": "address"
        },
        {
          "internalType": "address",
          "name": "to",
          "type": "address"
        },
        {
          "internalType": "uint256",
          "name": "tokenId",
          "type": "uint256"
        }
      ],
      "name": "transferFrom",
      "outputs": [],
      "stateMutability": "nonpayable",
      "type": "function"
    }
  ],
  "bytecode": "0x608060405234801561001057600080fd5b506040518060400160405280601781526020017f4765656b20436f757273652043657274696669636174650000000000000000008152506040518060400160405280600681526020017f4765656b43430000000000000000000000000000000000000000000000000000815250816000908161008c91906104aa565b50806001908161009c91906104aa565b5050506100b26000801b336100e960201b60201c565b506100e37f9f2df0fed2c77648de5860a4cc508cd0818c85b8b8a1ab4ceeef8d981c8956a6336100e960201b60201c565b5061057c565b60006100fb83836101e760201b60201c565b6101dc5760016006600085815260200190815260200160002060000160008473ffffffffffffffffffffffffffffffffffffffff1673ffffffffffffffffffffffffffffffffffffffff16815260200190815260200160002060006101000a81548160ff02191690831515021790555061017961025260201b60201c565b73ffffffffffffffffffffffffffffffffffffffff168273ffffffffffffffffffffffffffffffffffffffff16847f2f8788117e7eff1d82e926ec794901d17c78024a50270940304540a733656f0d60405160405180910390a4600190506101e1565b600090505b92915050565b60006006600084815260200190815260200160002060000160008373ffffffffffffffffffffffffffffffffffffffff1673ffffffffffffffffffffffffffffffffffffffff16815260200190815260200160002060009054906101000a900460ff16905092915050565b600033905090565b600081519050919050565b7f4e487b7100000000000000000000000000000000000000000000000000000000600052604160045260246000fd5b7f4e487b7100000000000000000000000000000000000000000000000000000000600052602260045260246000fd5b600060028204905060018216806102db57607f821691505b6020821081036102ee576102ed610294565b5b50919050565b60008190508160005260206000209050919050565b60006020601f8301049050919050565b600082821b905092915050565b6000600883026103567fffffffffffffffffffffffffffffffffffffffffffffffffffffffffffffffff82610319565b6103608683610319565b95508019841693508086168417925050509392505050565b6000819050919050565b6000819050919050565b60006103a76103a261039d84610378565b610382565b610378565b9050919050565b6000819050919050565b6103c18361038c565b6103d56103cd826103ae565b848454610326565b825550505050565b600090565b6103ea6103dd565b6103f58184846103b8565b505050565b5b818110156104195761040e6000826103e2565b6001810190506103fb565b5050565b601f82111561045e5761042f816102f4565b61043884610309565b81016020851015610447578190505b61045b61045385610309565b8301826103fa565b50505b505050565b600082821c905092915050565b600061048160001984600802610463565b1980831691505092915050565b600061049a8383610470565b9150826002028217905092915050565b6104b38261025a565b67ffffffffffffffff8111156104cc576104cb610265565b5b6104d682546102c3565b6104e182828561041d565b600060209050601f8311600181146105145760008415610502578287015190505b61050c858261048e565b865550610574565b601f198416610522866102f4565b60005b8281101561054a57848901518255600182019150602085019450602081019050610525565b868310156105675784890151610563601f891682610470565b8355505b6001600288020188555050505b505050505050565b612f1f8061058b6000396000f3fe608060405234801561001057600080fd5b50600436106101735760003560e01c8063663b3e22116100de578063a22cb46511610097578063d33f116511610071578063d33f1165146104a9578063d5391393146104d9578063d547741f146104f7578063e985e9c51461051357610173565b8063a22cb46514610441578063b88d4fde1461045d578063c87b56dd1461047957610173565b8063663b3e22146103425780636b55243d1461037557806370a08231146103a557806391d14854146103d557806395d89b4114610405578063a217fddf1461042357610173565b80632f2ff15d116101305780632f2ff15d1461025e57806336568abe1461027a5780633998b6fe146102965780633c433ebe146102c657806342842e0e146102f65780636352211e1461031257610173565b806301ffc9a71461017857806306fdde03146101a8578063081812fc146101c6578063095ea7b3146101f657806323b872dd14610212578063248a9ca31461022e575b600080fd5b610192600480360381019061018d9190612024565b610543565b60405161019f919061206c565b60405180910390f35b6101b0610555565b6040516101bd9190612117565b60405180910390f35b6101e060048036038101906101db919061216f565b6105e7565b6040516101ed91906121dd565b60405180910390f35b610210600480360381019061020b9190612224565b610603565b005b61022c60048036038101906102279190612264565b610619565b005b610248600480360381019061024391906122ed565b61071b565b6040516102559190612329565b60405180910390f35b61027860048036038101906102739190612344565b61073b565b005b610294600480360381019061028f9190612344565b61075d565b005b6102b060048036038101906102ab91906124b9565b6107d8565b6040516102bd91906125d3565b60405180910390f35b6102e060048036038101906102db91906124b9565b61088c565b6040516102ed919061206c565b60405180910390f35b610310600480360381019061030b9190612264565b6108f7565b005b61032c6004803603810190610327919061216f565b610917565b60405161033991906121dd565b60405180910390f35b61035c6004803603810190610357919061216f565b610929565b60405161036c9493929190612604565b60405180910390f35b61038f600480360381019061038a9190612657565b610a89565b60405161039c91906126e2565b60405180910390f35b6103bf60048036038101906103ba91906126fd565b610cf4565b6040516103cc91906126e2565b60405180910390f35b6103ef60048036038101906103ea9190612344565b610dae565b6040516103fc919061206c565b60405180910390f35b61040d610e19565b60405161041a9190612117565b60405180910390f35b61042b610eab565b6040516104389190612329565b60405180910390f35b61045b60048036038101906104569190612756565b610eb2565b005b61047760048036038101906104729190612837565b610ec8565b005b610493600480360381019061048e919061216f565b610eed565b6040516104a09190612117565b60405180910390f35b6104c360048036038101906104be91906128ba565b610f9f565b6040516104d091906126e2565b60405180910390f35b6104e1610ff3565b6040516104ee9190612329565b60405180910390f35b610511600480360381019061050c9190612344565b611017565b005b61052d60048036038101906105289190612929565b611039565b60405161053a919061206c565b60405180910390f35b600061054e826110cd565b9050919050565b60606000805461056490612998565b80601f016020809104026020016040519081016040528092919081815260200182805461059090612998565b80156105dd5780601f106105b2576101008083540402835291602001916105dd565b820191906000526020600020905b8154815290600101906020018083116105c057829003601f168201915b5050505050905090565b60006105f282611147565b506105fc826111cf565b9050919050565b610615828261061061120c565b611214565b5050565b600073ffffffffffffffffffffffffffffffffffffffff168273ffffffffffffffffffffffffffffffffffffffff160361068b5760006040517f64a0ae9200000000000000000000000000000000000000000000000000000000815260040161068291906121dd565b60405180910390fd5b600061069f838361069a61120c565b611226565b90508373ffffffffffffffffffffffffffffffffffffffff168173ffffffffffffffffffffffffffffffffffffffff1614610715578382826040517f64283d7b00000000000000000000000000000000000000000000000000000000815260040161070c939291906129c9565b60405180910390fd5b50505050565b600060066000838152602001908152602001600020600101549050919050565b6107448261071b565b61074d81611440565b6107578383611454565b50505050565b61076561120c565b73ffffffffffffffffffffffffffffffffffffffff168173ffffffffffffffffffffffffffffffffffffffff16146107c9576040517f6697b23200000000000000000000000000000000000000000000000000000000815260040160405180910390fd5b6107d38282611546565b505050565b60606009826040516107ea9190612a3c565b908152602001604051809103902060008473ffffffffffffffffffffffffffffffffffffffff1673ffffffffffffffffffffffffffffffffffffffff16815260200190815260200160002080548060200260200160405190810160405280929190818152602001828054801561087f57602002820191906000526020600020905b81548152602001906001019080831161086b575b5050505050905092915050565b60008060098360405161089f9190612a3c565b908152602001604051809103902060008573ffffffffffffffffffffffffffffffffffffffff1673ffffffffffffffffffffffffffffffffffffffff1681526020019081526020016000208054905011905092915050565b61091283838360405180602001604052806000815250610ec8565b505050565b600061092282611147565b9050919050565b600860205280600052604060002060009150905080600001805461094c90612998565b80601f016020809104026020016040519081016040528092919081815260200182805461097890612998565b80156109c55780601f1061099a576101008083540402835291602001916109c5565b820191906000526020600020905b8154815290600101906020018083116109a857829003601f168201915b5050505050908060010160009054906101000a900473ffffffffffffffffffffffffffffffffffffffff1690806002015490806003018054610a0690612998565b80601f0160208091040260200160405190810160405280929190818152602001828054610a3290612998565b8015610a7f5780601f10610a5457610100808354040283529160200191610a7f565b820191906000526020600020905b815481529060010190602001808311610a6257829003601f168201915b5050505050905084565b60007f9f2df0fed2c77648de5860a4cc508cd0818c85b8b8a1ab4ceeef8d981c8956a6610ab581611440565b600073ffffffffffffffffffffffffffffffffffffffff168573ffffffffffffffffffffffffffffffffffffffff1603610b24576040517f08c379a0000000000000000000000000000000000000000000000000000000008152600401610b1b90612a9f565b60405180910390fd5b60076000815480929190610b3790612aee565b919050555060006007549050610b4d8682611639565b60405180608001604052808681526020018773ffffffffffffffffffffffffffffffffffffffff16815260200142815260200185815250600860008381526020019081526020016000206000820151816000019081610bac9190612ce2565b5060208201518160010160006101000a81548173ffffffffffffffffffffffffffffffffffffffff021916908373ffffffffffffffffffffffffffffffffffffffff160217905550604082015181600201556060820151816003019081610c139190612ce2565b50905050600985604051610c279190612a3c565b908152602001604051809103902060008773ffffffffffffffffffffffffffffffffffffffff1673ffffffffffffffffffffffffffffffffffffffff1681526020019081526020016000208190806001815401808255809150506001900390600052602060002001600090919091909150558573ffffffffffffffffffffffffffffffffffffffff16817f3a8294eea84a809a4e4f058c92870183809c74c7e705132fcbdc5e2b0e51d9f187604051610ce09190612117565b60405180910390a380925050509392505050565b60008073ffffffffffffffffffffffffffffffffffffffff168273ffffffffffffffffffffffffffffffffffffffff1603610d675760006040517f89c62b64000000000000000000000000000000000000000000000000000000008152600401610d5e91906121dd565b60405180910390fd5b600360008373ffffffffffffffffffffffffffffffffffffffff1673ffffffffffffffffffffffffffffffffffffffff168152602001908152602001600020549050919050565b60006006600084815260200190815260200160002060000160008373ffffffffffffffffffffffffffffffffffffffff1673ffffffffffffffffffffffffffffffffffffffff16815260200190815260200160002060009054906101000a900460ff16905092915050565b606060018054610e2890612998565b80601f0160208091040260200160405190810160405280929190818152602001828054610e5490612998565b8015610ea15780601f10610e7657610100808354040283529160200191610ea1565b820191906000526020600020905b815481529060010190602001808311610e8457829003601f168201915b5050505050905090565b6000801b81565b610ec4610ebd61120c565b8383611657565b5050565b610ed3848484610619565b610ee7610ede61120c565b858585856117c6565b50505050565b6060610ef882611147565b50600860008381526020019081526020016000206003018054610f1a90612998565b80601f0160208091040260200160405190810160405280929190818152602001828054610f4690612998565b8015610f935780601f10610f6857610100808354040283529160200191610f93565b820191906000526020600020905b815481529060010190602001808311610f7657829003601f168201915b50505050509050919050565b6009838051602081018201805184825260208301602085012081835280955050505050506020528160005260406000208181548110610fdd57600080fd5b9060005260206000200160009250925050505481565b7f9f2df0fed2c77648de5860a4cc508cd0818c85b8b8a1ab4ceeef8d981c8956a681565b6110208261071b565b61102981611440565b6110338383611546565b50505050565b6000600560008473ffffffffffffffffffffffffffffffffffffffff1673ffffffffffffffffffffffffffffffffffffffff16815260200190815260200160002060008373ffffffffffffffffffffffffffffffffffffffff1673ffffffffffffffffffffffffffffffffffffffff16815260200190815260200160002060009054906101000a900460ff16905092915050565b60007f7965db0b000000000000000000000000000000000000000000000000000000007bffffffffffffffffffffffffffffffffffffffffffffffffffffffff1916827bffffffffffffffffffffffffffffffffffffffffffffffffffffffff19161480611140575061113f82611977565b5b9050919050565b60008061115383611a59565b9050600073ffffffffffffffffffffffffffffffffffffffff168173ffffffffffffffffffffffffffffffffffffffff16036111c657826040517f7e2732890000000000000000000000000000000000000000000000000000000081526004016111bd91906126e2565b60405180910390fd5b80915050919050565b60006004600083815260200190815260200160002060009054906101000a900473ffffffffffffffffffffffffffffffffffffffff169050919050565b600033905090565b6112218383836001611a96565b505050565b60008061123284611a59565b9050600073ffffffffffffffffffffffffffffffffffffffff168373ffffffffffffffffffffffffffffffffffffffff161461127457611273818486611c5b565b5b600073ffffffffffffffffffffffffffffffffffffffff168173ffffffffffffffffffffffffffffffffffffffff1614611305576112b6600085600080611a96565b6001600360008373ffffffffffffffffffffffffffffffffffffffff1673ffffffffffffffffffffffffffffffffffffffff168152602001908152602001600020600082825403925050819055505b600073ffffffffffffffffffffffffffffffffffffffff168573ffffffffffffffffffffffffffffffffffffffff1614611388576001600360008773ffffffffffffffffffffffffffffffffffffffff1673ffffffffffffffffffffffffffffffffffffffff168152602001908152602001600020600082825401925050819055505b846002600086815260200190815260200160002060006101000a81548173ffffffffffffffffffffffffffffffffffffffff021916908373ffffffffffffffffffffffffffffffffffffffff160217905550838573ffffffffffffffffffffffffffffffffffffffff168273ffffffffffffffffffffffffffffffffffffffff167fddf252ad1be2c89b69c2b068fc378daa952ba7f163c4a11628f55a4df523b3ef60405160405180910390a4809150509392505050565b6114518161144c61120c565b611d1f565b50565b60006114608383610dae565b61153b5760016006600085815260200190815260200160002060000160008473ffffffffffffffffffffffffffffffffffffffff1673ffffffffffffffffffffffffffffffffffffffff16815260200190815260200160002060006101000a81548160ff0219169083151502179055506114d861120c565b73ffffffffffffffffffffffffffffffffffffffff168273ffffffffffffffffffffffffffffffffffffffff16847f2f8788117e7eff1d82e926ec794901d17c78024a50270940304540a733656f0d60405160405180910390a460019050611540565b600090505b92915050565b60006115528383610dae565b1561162e5760006006600085815260200190815260200160002060000160008473ffffffffffffffffffffffffffffffffffffffff1673ffffffffffffffffffffffffffffffffffffffff16815260200190815260200160002060006101000a81548160ff0219169083151502179055506115cb61120c565b73ffffffffffffffffffffffffffffffffffffffff168273ffffffffffffffffffffffffffffffffffffffff16847ff6391f5c32d9c69d2a47ea670b442974b53935d1edc7fd64eb21e047a839171b60405160405180910390a460019050611633565b600090505b92915050565b611653828260405180602001604052806000815250611d70565b5050565b600073ffffffffffffffffffffffffffffffffffffffff168273ffffffffffffffffffffffffffffffffffffffff16036116c857816040517f5b08ba180000000000000000000000000000000000000000000000000000000081526004016116bf91906121dd565b60405180910390fd5b80600560008573ffffffffffffffffffffffffffffffffffffffff1673ffffffffffffffffffffffffffffffffffffffff16815260200190815260200160002060008473ffffffffffffffffffffffffffffffffffffffff1673ffffffffffffffffffffffffffffffffffffffff16815260200190815260200160002060006101000a81548160ff0219169083151502179055508173ffffffffffffffffffffffffffffffffffffffff168373ffffffffffffffffffffffffffffffffffffffff167f17307eab39ab6107e8899845ad3d59bd9653f200f220920489ca2b5937696c31836040516117b9919061206c565b60405180910390a3505050565b60008373ffffffffffffffffffffffffffffffffffffffff163b1115611970578273ffffffffffffffffffffffffffffffffffffffff1663150b7a02868685856040518563ffffffff1660e01b81526004016118259493929190612e09565b6020604051808303816000875af192505050801561186157506040513d601f19601f8201168201806040525081019061185e9190612e6a565b60015b6118e5573d8060008114611891576040519150601f19603f3d011682016040523d82523d6000602084013e611896565b606091505b5060008151036118dd57836040517f64a0ae920000000000000000000000000000000000000000000000000000000081526004016118d491906121dd565b60405180910390fd5b805181602001fd5b63150b7a0260e01b7bffffffffffffffffffffffffffffffffffffffffffffffffffffffff1916817bffffffffffffffffffffffffffffffffffffffffffffffffffffffff19161461196e57836040517f64a0ae9200000000000000000000000000000000000000000000000000000000815260040161196591906121dd565b60405180910390fd5b505b5050505050565b60007f80ac58cd000000000000000000000000000000000000000000000000000000007bffffffffffffffffffffffffffffffffffffffffffffffffffffffff1916827bffffffffffffffffffffffffffffffffffffffffffffffffffffffff19161480611a4257507f5b5e139f000000000000000000000000000000000000000000000000000000007bffffffffffffffffffffffffffffffffffffffffffffffffffffffff1916827bffffffffffffffffffffffffffffffffffffffffffffffffffffffff1916145b80611a525750611a5182611d94565b5b9050919050565b60006002600083815260200190815260200160002060009054906101000a900473ffffffffffffffffffffffffffffffffffffffff169050919050565b8080611acf5750600073ffffffffffffffffffffffffffffffffffffffff168273ffffffffffffffffffffffffffffffffffffffff1614155b15611c03576000611adf84611147565b9050600073ffffffffffffffffffffffffffffffffffffffff168373ffffffffffffffffffffffffffffffffffffffff1614158015611b4a57508273ffffffffffffffffffffffffffffffffffffffff168173ffffffffffffffffffffffffffffffffffffffff1614155b8015611b5d5750611b5b8184611039565b155b15611b9f57826040517fa9fbf51f000000000000000000000000000000000000000000000000000000008152600401611b9691906121dd565b60405180910390fd5b8115611c0157838573ffffffffffffffffffffffffffffffffffffffff168273ffffffffffffffffffffffffffffffffffffffff167f8c5be1e5ebec7d5bd14f71427d1e84f3dd0314c0f7b2291e5b200ac8c7c3b92560405160405180910390a45b505b836004600085815260200190815260200160002060006101000a81548173ffffffffffffffffffffffffffffffffffffffff021916908373ffffffffffffffffffffffffffffffffffffffff16021790555050505050565b611c66838383611dfe565b611d1a57600073ffffffffffffffffffffffffffffffffffffffff168373ffffffffffffffffffffffffffffffffffffffff1603611cdb57806040517f7e273289000000000000000000000000000000000000000000000000000000008152600401611cd291906126e2565b60405180910390fd5b81816040517f177e802f000000000000000000000000000000000000000000000000000000008152600401611d11929190612e97565b60405180910390fd5b505050565b611d298282610dae565b611d6c5780826040517fe2517d3f000000000000000000000000000000000000000000000000000000008152600401611d63929190612ec0565b60405180910390fd5b5050565b611d7a8383611ebf565b611d8f611d8561120c565b60008585856117c6565b505050565b60007f01ffc9a7000000000000000000000000000000000000000000000000000000007bffffffffffffffffffffffffffffffffffffffffffffffffffffffff1916827bffffffffffffffffffffffffffffffffffffffffffffffffffffffff1916149050919050565b60008073ffffffffffffffffffffffffffffffffffffffff168373ffffffffffffffffffffffffffffffffffffffff1614158015611eb657508273ffffffffffffffffffffffffffffffffffffffff168473ffffffffffffffffffffffffffffffffffffffff161480611e775750611e768484611039565b5b80611eb557508273ffffffffffffffffffffffffffffffffffffffff16611e9d836111cf565b73ffffffffffffffffffffffffffffffffffffffff16145b5b90509392505050565b600073ffffffffffffffffffffffffffffffffffffffff168273ffffffffffffffffffffffffffffffffffffffff1603611f315760006040517f64a0ae92000000000000000000000000000000000000000000000000000000008152600401611f2891906121dd565b60405180910390fd5b6000611f3f83836000611226565b9050600073ffffffffffffffffffffffffffffffffffffffff168173ffffffffffffffffffffffffffffffffffffffff1614611fb35760006040517f73c6ac6e000000000000000000000000000000000000000000000000000000008152600401611faa91906121dd565b60405180910390fd5b505050565b6000604051905090565b600080fd5b600080fd5b60007fffffffff0000000000000000000000000000000000000000000000000000000082169050919050565b61200181611fcc565b811461200c57600080fd5b50565b60008135905061201e81611ff8565b92915050565b60006020828403121561203a57612039611fc2565b5b60006120488482850161200f565b91505092915050565b60008115159050919050565b61206681612051565b82525050565b6000602082019050612081600083018461205d565b92915050565b600081519050919050565b600082825260208201905092915050565b60005b838110156120c15780820151818401526020810190506120a6565b60008484015250505050565b6000601f19601f8301169050919050565b60006120e982612087565b6120f38185612092565b93506121038185602086016120a3565b61210c816120cd565b840191505092915050565b6000602082019050818103600083015261213181846120de565b905092915050565b6000819050919050565b61214c81612139565b811461215757600080fd5b50565b60008135905061216981612143565b92915050565b60006020828403121561218557612184611fc2565b5b60006121938482850161215a565b91505092915050565b600073ffffffffffffffffffffffffffffffffffffffff82169050919050565b60006121c78261219c565b9050919050565b6121d7816121bc565b82525050565b60006020820190506121f260008301846121ce565b92915050565b612201816121bc565b811461220c57600080fd5b50565b60008135905061221e816121f8565b92915050565b6000806040838503121561223b5761223a611fc2565b5b60006122498582860161220f565b925050602061225a8582860161215a565b9150509250929050565b60008060006060848603121561227d5761227c611fc2565b5b600061228b8682870161220f565b935050602061229c8682870161220f565b92505060406122ad8682870161215a565b9150509250925092565b6000819050919050565b6122ca816122b7565b81146122d557600080fd5b50565b6000813590506122e7816122c1565b92915050565b60006020828403121561230357612302611fc2565b5b6000612311848285016122d8565b91505092915050565b612323816122b7565b82525050565b600060208201905061233e600083018461231a565b92915050565b6000806040838503121561235b5761235a611fc2565b5b6000612369858286016122d8565b925050602061237a8582860161220f565b9150509250929050565b600080fd5b600080fd5b7f4e487b7100000000000000000000000000000000000000000000000000000000600052604160045260246000fd5b6123c6826120cd565b810181811067ffffffffffffffff821117156123e5576123e461238e565b5b80604052505050565b60006123f8611fb8565b905061240482826123bd565b919050565b600067ffffffffffffffff8211156124245761242361238e565b5b61242d826120cd565b9050602081019050919050565b82818337600083830152505050565b600061245c61245784612409565b6123ee565b90508281526020810184848401111561247857612477612389565b5b61248384828561243a565b509392505050565b600082601f8301126124a05761249f612384565b5b81356124b0848260208601612449565b91505092915050565b600080604083850312156124d0576124cf611fc2565b5b60006124de8582860161220f565b925050602083013567ffffffffffffffff8111156124ff576124fe611fc7565b5b61250b8582860161248b565b9150509250929050565b600081519050919050565b600082825260208201905092915050565b6000819050602082019050919050565b61254a81612139565b82525050565b600061255c8383612541565b60208301905092915050565b6000602082019050919050565b600061258082612515565b61258a8185612520565b935061259583612531565b8060005b838110156125c65781516125ad8882612550565b97506125b883612568565b925050600181019050612599565b5085935050505092915050565b600060208201905081810360008301526125ed8184612575565b905092915050565b6125fe81612139565b82525050565b6000608082019050818103600083015261261e81876120de565b905061262d60208301866121ce565b61263a60408301856125f5565b818103606083015261264c81846120de565b905095945050505050565b6000806000606084860312156126705761266f611fc2565b5b600061267e8682870161220f565b935050602084013567ffffffffffffffff81111561269f5761269e611fc7565b5b6126ab8682870161248b565b925050604084013567ffffffffffffffff8111156126cc576126cb611fc7565b5b6126d88682870161248b565b9150509250925092565b60006020820190506126f760008301846125f5565b92915050565b60006020828403121561271357612712611fc2565b5b60006127218482850161220f565b91505092915050565b61273381612051565b811461273e57600080fd5b50565b6000813590506127508161272a565b92915050565b6000806040838503121561276d5761276c611fc2565b5b600061277b8582860161220f565b925050602061278c85828601612741565b9150509250929050565b600067ffffffffffffffff8211156127b1576127b061238e565b5b6127ba826120cd565b9050602081019050919050565b60006127da6127d584612796565b6123ee565b9050828152602081018484840111156127f6576127f5612389565b5b61280184828561243a565b509392505050565b600082601f83011261281e5761281d612384565b5b813561282e8482602086016127c7565b91505092915050565b6000806000806080858703121561285157612850611fc2565b5b600061285f8782880161220f565b94505060206128708782880161220f565b93505060406128818782880161215a565b925050606085013567ffffffffffffffff8111156128a2576128a1611fc7565b5b6128ae87828801612809565b91505092959194509250565b6000806000606084860312156128d3576128d2611fc2565b5b600084013567ffffffffffffffff8111156128f1576128f0611fc7565b5b6128fd8682870161248b565b935050602061290e8682870161220f565b925050604061291f8682870161215a565b9150509250925092565b600080604083850312156129405761293f611fc2565b5b600061294e8582860161220f565b925050602061295f8582860161220f565b9150509250929050565b7f4e487b7100000000000000000000000000000000000000000000000000000000600052602260045260246000fd5b600060028204905060018216806129b057607f821691505b6020821081036129c3576129c2612969565b5b50919050565b60006060820190506129de60008301866121ce565b6129eb60208301856125f5565b6129f860408301846121ce565b949350505050565b600081905092915050565b6000612a1682612087565b612a208185612a00565b9350612a308185602086016120a3565b80840191505092915050565b6000612a488284612a0b565b915081905092915050565b7f496e76616c69642073747564656e742061646472657373000000000000000000600082015250565b6000612a89601783612092565b9150612a9482612a53565b602082019050919050565b60006020820190508181036000830152612ab881612a7c565b9050919050565b7f4e487b7100000000000000000000000000000000000000000000000000000000600052601160045260246000fd5b6000612af982612139565b91507fffffffffffffffffffffffffffffffffffffffffffffffffffffffffffffffff8203612b2b57612b2a612abf565b5b600182019050919050565b60008190508160005260206000209050919050565b60006020601f8301049050919050565b600082821b905092915050565b600060088302612b987fffffffffffffffffffffffffffffffffffffffffffffffffffffffffffffffff82612b5b565b612ba28683612b5b565b95508019841693508086168417925050509392505050565b6000819050919050565b6000612bdf612bda612bd584612139565b612bba565b612139565b9050919050565b6000819050919050565b612bf983612bc4565b612c0d612c0582612be6565b848454612b68565b825550505050565b600090565b612c22612c15565b612c2d818484612bf0565b505050565b5b81811015612c5157612c46600082612c1a565b600181019050612c33565b5050565b601f821115612c9657612c6781612b36565b612c7084612b4b565b81016020851015612c7f578190505b612c93612c8b85612b4b565b830182612c32565b50505b505050565b600082821c905092915050565b6000612cb960001984600802612c9b565b1980831691505092915050565b6000612cd28383612ca8565b9150826002028217905092915050565b612ceb82612087565b67ffffffffffffffff811115612d0457612d0361238e565b5b612d0e8254612998565b612d19828285612c55565b600060209050601f831160018114612d4c5760008415612d3a578287015190505b612d448582612cc6565b865550612dac565b601f198416612d5a86612b36565b60005b82811015612d8257848901518255600182019150602085019450602081019050612d5d565b86831015612d9f5784890151612d9b601f891682612ca8565b8355505b6001600288020188555050505b505050505050565b600081519050919050565b600082825260208201905092915050565b6000612ddb82612db4565b612de58185612dbf565b9350612df58185602086016120a3565b612dfe816120cd565b840191505092915050565b6000608082019050612e1e60008301876121ce565b612e2b60208301866121ce565b612e3860408301856125f5565b8181036060830152612e4a8184612dd0565b905095945050505050565b600081519050612e6481611ff8565b92915050565b600060208284031215612e8057612e7f611fc2565b5b6000612e8e84828501612e55565b91505092915050565b6000604082019050612eac60008301856121ce565b612eb960208301846125f5565b9392505050565b6000604082019050612ed560008301856121ce565b612ee2602083018461231a565b939250505056fea264697066735822122077613aa0ec9e246feddf35f78590e583e03080c693226c7e34fbb9776629a54964736f6c634300081c0033",
  "linkReferences": {},
  "deployedLinkReferences": {}
}